{
  "_format": "hh-sol-artifact-1",
  "contractName": "TennisMatches",
  "sourceName": "contracts/TennisMatches.sol",
  "abi": [
    {
      "inputs": [],
      "stateMutability": "nonpayable",
      "type": "constructor"
    },
    {
      "anonymous": false,
      "inputs": [
        {
          "indexed": true,
          "internalType": "address",
          "name": "newAdmin",
          "type": "address"
        }
      ],
      "name": "AdminChanged",
      "type": "event"
    },
    {
      "anonymous": false,
      "inputs": [
        {
          "indexed": true,
          "internalType": "uint256",
          "name": "matchId",
          "type": "uint256"
        },
        {
          "indexed": false,
          "internalType": "string",
          "name": "homePlayer",
          "type": "string"
        },
        {
          "indexed": false,
          "internalType": "string",
          "name": "awayPlayer",
          "type": "string"
        }
      ],
      "name": "MatchAdded",
      "type": "event"
    },
    {
      "anonymous": false,
      "inputs": [
        {
          "indexed": true,
          "internalType": "uint256",
          "name": "matchId",
          "type": "uint256"
        },
        {
          "indexed": false,
          "internalType": "string",
          "name": "status",
          "type": "string"
        },
        {
          "indexed": false,
          "internalType": "string",
          "name": "homeScore",
          "type": "string"
        },
        {
          "indexed": false,
          "internalType": "string",
          "name": "awayScore",
          "type": "string"
        }
      ],
      "name": "MatchUpdated",
      "type": "event"
    },
    {
      "inputs": [
        {
          "internalType": "uint256",
          "name": "_id",
          "type": "uint256"
        },
        {
          "internalType": "string",
          "name": "_tournament",
          "type": "string"
        },
        {
          "internalType": "string",
          "name": "_category",
          "type": "string"
        },
        {
          "internalType": "string",
          "name": "_homePlayer",
          "type": "string"
        },
        {
          "internalType": "string",
          "name": "_awayPlayer",
          "type": "string"
        },
        {
          "internalType": "string",
          "name": "_homeCountry",
          "type": "string"
        },
        {
          "internalType": "string",
          "name": "_awayCountry",
          "type": "string"
        },
        {
          "internalType": "bool",
          "name": "_hasBritish",
          "type": "bool"
        },
        {
          "internalType": "uint256",
          "name": "_startTimestamp",
          "type": "uint256"
        }
      ],
      "name": "addMatch",
      "outputs": [],
      "stateMutability": "nonpayable",
      "type": "function"
    },
    {
      "inputs": [],
      "name": "admin",
      "outputs": [
        {
          "internalType": "address",
          "name": "",
          "type": "address"
        }
      ],
      "stateMutability": "view",
      "type": "function"
    },
    {
      "inputs": [
        {
          "internalType": "address",
          "name": "_newAdmin",
          "type": "address"
        }
      ],
      "name": "changeAdmin",
      "outputs": [],
      "stateMutability": "nonpayable",
      "type": "function"
    },
    {
      "inputs": [],
      "name": "getAllMatches",
      "outputs": [
        {
          "components": [
            {
              "internalType": "uint256",
              "name": "id",
              "type": "uint256"
            },
            {
              "internalType": "string",
              "name": "tournament",
              "type": "string"
            },
            {
              "internalType": "string",
              "name": "category",
              "type": "string"
            },
            {
              "internalType": "string",
              "name": "homePlayer",
              "type": "string"
            },
            {
              "internalType": "string",
              "name": "awayPlayer",
              "type": "string"
            },
            {
              "internalType": "string",
              "name": "homeCountry",
              "type": "string"
            },
            {
              "internalType": "string",
              "name": "awayCountry",
              "type": "string"
            },
            {
              "internalType": "string",
              "name": "homeScore",
              "type": "string"
            },
            {
              "internalType": "string",
              "name": "awayScore",
              "type": "string"
            },
            {
              "internalType": "string",
              "name": "status",
              "type": "string"
            },
            {
              "internalType": "bool",
              "name": "isLive",
              "type": "bool"
            },
            {
              "internalType": "bool",
              "name": "hasBritish",
              "type": "bool"
            },
            {
              "internalType": "uint256",
              "name": "startTimestamp",
              "type": "uint256"
            },
            {
              "internalType": "uint256",
              "name": "lastUpdated",
              "type": "uint256"
            }
          ],
          "internalType": "struct TennisMatches.Match[]",
          "name": "",
          "type": "tuple[]"
        }
      ],
      "stateMutability": "view",
      "type": "function"
    },
    {
      "inputs": [
        {
          "internalType": "uint256",
          "name": "_id",
          "type": "uint256"
        }
      ],
      "name": "getMatch",
      "outputs": [
        {
          "components": [
            {
              "internalType": "uint256",
              "name": "id",
              "type": "uint256"
            },
            {
              "internalType": "string",
              "name": "tournament",
              "type": "string"
            },
            {
              "internalType": "string",
              "name": "category",
              "type": "string"
            },
            {
              "internalType": "string",
              "name": "homePlayer",
              "type": "string"
            },
            {
              "internalType": "string",
              "name": "awayPlayer",
              "type": "string"
            },
            {
              "internalType": "string",
              "name": "homeCountry",
              "type": "string"
            },
            {
              "internalType": "string",
              "name": "awayCountry",
              "type": "string"
            },
            {
              "internalType": "string",
              "name": "homeScore",
              "type": "string"
            },
            {
              "internalType": "string",
              "name": "awayScore",
              "type": "string"
            },
            {
              "internalType": "string",
              "name": "status",
              "type": "string"
            },
            {
              "internalType": "bool",
              "name": "isLive",
              "type": "bool"
            },
            {
              "internalType": "bool",
              "name": "hasBritish",
              "type": "bool"
            },
            {
              "internalType": "uint256",
              "name": "startTimestamp",
              "type": "uint256"
            },
            {
              "internalType": "uint256",
              "name": "lastUpdated",
              "type": "uint256"
            }
          ],
          "internalType": "struct TennisMatches.Match",
          "name": "",
          "type": "tuple"
        }
      ],
      "stateMutability": "view",
      "type": "function"
    },
    {
      "inputs": [],
      "name": "getMatchCount",
      "outputs": [
        {
          "internalType": "uint256",
          "name": "",
          "type": "uint256"
        }
      ],
      "stateMutability": "view",
      "type": "function"
    },
    {
      "inputs": [
        {
          "internalType": "uint256",
          "name": "",
          "type": "uint256"
        }
      ],
      "name": "matchExists",
      "outputs": [
        {
          "internalType": "bool",
          "name": "",
          "type": "bool"
        }
      ],
      "stateMutability": "view",
      "type": "function"
    },
    {
      "inputs": [
        {
          "internalType": "uint256",
          "name": "",
          "type": "uint256"
        }
      ],
      "name": "matchIds",
      "outputs": [
        {
          "internalType": "uint256",
          "name": "",
          "type": "uint256"
        }
      ],
      "stateMutability": "view",
      "type": "function"
    },
    {
      "inputs": [
        {
          "internalType": "uint256",
          "name": "",
          "type": "uint256"
        }
      ],
      "name": "matches",
      "outputs": [
        {
          "internalType": "uint256",
          "name": "id",
          "type": "uint256"
        },
        {
          "internalType": "string",
          "name": "tournament",
          "type": "string"
        },
        {
          "internalType": "string",
          "name": "category",
          "type": "string"
        },
        {
          "internalType": "string",
          "name": "homePlayer",
          "type": "string"
        },
        {
          "internalType": "string",
          "name": "awayPlayer",
          "type": "string"
        },
        {
          "internalType": "string",
          "name": "homeCountry",
          "type": "string"
        },
        {
          "internalType": "string",
          "name": "awayCountry",
          "type": "string"
        },
        {
          "internalType": "string",
          "name": "homeScore",
          "type": "string"
        },
        {
          "internalType": "string",
          "name": "awayScore",
          "type": "string"
        },
        {
          "internalType": "string",
          "name": "status",
          "type": "string"
        },
        {
          "internalType": "bool",
          "name": "isLive",
          "type": "bool"
        },
        {
          "internalType": "bool",
          "name": "hasBritish",
          "type": "bool"
        },
        {
          "internalType": "uint256",
          "name": "startTimestamp",
          "type": "uint256"
        },
        {
          "internalType": "uint256",
          "name": "lastUpdated",
          "type": "uint256"
        }
      ],
      "stateMutability": "view",
      "type": "function"
    },
    {
      "inputs": [
        {
          "internalType": "uint256",
          "name": "_id",
          "type": "uint256"
        },
        {
          "internalType": "string",
          "name": "_homeScore",
          "type": "string"
        },
        {
          "internalType": "string",
          "name": "_awayScore",
          "type": "string"
        },
        {
          "internalType": "string",
          "name": "_status",
          "type": "string"
        },
        {
          "internalType": "bool",
          "name": "_isLive",
          "type": "bool"
        }
      ],
      "name": "updateMatch",
      "outputs": [],
      "stateMutability": "nonpayable",
      "type": "function"
    }
  ],
  "bytecode": "0x6080806040523461002857600080546001600160a01b03191633179055611d6f908161002e8239f35b600080fdfe6080604052600436101561001257600080fd5b60003560e01c80631813358814610b6c5780631fd6ad7114610b3b57806336ff6a7014610b045780633d092b3d146109ca5780634768d4ef146108525780638c4f7dae146108345780638f2839701461078957806397518993146102b9578063c17c5a45146100b85763f851a4401461008a57600080fd5b346100b35760003660031901126100b3576000546040516001600160a01b039091168152602090f35b600080fd5b346100b35760003660031901126100b357600280546100d681611d0e565b916100e4604051938461191a565b818352601f196100f383611d0e565b0160005b8181106102a257505060005b828110610169576040805160208082528651818301819052600093600582901b8401810192808a01929185015b82871061013d5785850386f35b909192938280610159600193603f198a82030186528851611a1e565b9601920196019592919092610130565b61017281611991565b9054600391821b1c600052600c6001916101c76020918483526040600020926101ac604051966101a1886118e3565b855488528501611b55565b908601526101bb878401611b55565b60408601528201611b55565b60608401526101d860048201611b55565b60808401526101e960058201611b55565b60a08401526101fa60068201611b55565b60c084015261020b60078201611b55565b60e0840152600861021d818301611b55565b61010085015261022f60098301611b55565b610120850152600a82015460ff9182821615156101408701521c161515610160840152600b81015461018084015201546101a082015261026f8286611d25565b5261027a8185611d25565b50600019811461028c57600101610103565b634e487b7160e01b600052601160045260246000fd5b6020906102ad611ca7565b828288010152016100f7565b346100b35760a03660031901126100b3576024356001600160401b0381116100b3576102e990369060040161193b565b6044356001600160401b0381116100b35761030890369060040161193b565b906064356001600160401b0381116100b35761032890369060040161193b565b906084351515608435036100b35761034b60018060a01b03600054163314611bfb565b600435600052600360205261036760ff60406000205416611c64565b6004356000526001602052600760406000200181516001600160401b038111610607576103948254611b1b565b601f8111610745575b50806020601f82116001146106de576000916106d3575b508160011b916000199060031b1c19161790555b6004356000526001602052600860406000200183516001600160401b038111610607576103f58254611b1b565b601f811161068f575b50806020601f82116001146106285760009161061d575b508160011b916000199060031b1c19161790555b6004356000526001602052600960406000200182516001600160401b038111610607576104568254611b1b565b601f81116105bf575b506020601f821160011461052d576104fe937f29952116c9440fcc886457b90d806b317f0275b3cb0903347cf9131d046f6dac95938361051d9461050c94600091610522575b508160011b916000199060031b1c19161790555b600435600052600160205260406000206104e4608435600a83019060ff801983541691151516179055565b600c429101556040519485946060865260608601906119de565b9084820360208601526119de565b8281036040840152600435956119de565b0390a2005b90508601518a6104a5565b601f198216908360005260206000209160005b8181106105a757509360018461050c946104fe989461051d977f29952116c9440fcc886457b90d806b317f0275b3cb0903347cf9131d046f6dac9b991061058e575b5050811b0190556104b9565b88015160001960f88460031b161c191690558a80610582565b9192602060018192868b015181550194019201610540565b826000526020600020601f830160051c810191602084106105fd575b601f0160051c01905b8181106105f1575061045f565b600081556001016105e4565b90915081906105db565b634e487b7160e01b600052604160045260246000fd5b905085015186610415565b91508260005260206000206000925b601f1983168410610677576001935082601f1981161061065e575b5050811b019055610429565b87015160001960f88460031b161c191690558680610652565b87810151825560209384019360019092019101610637565b826000526020600020601f830160051c8101602084106106cc575b601f830160051c820181106106c05750506103fe565b600081556001016106aa565b50806106aa565b9050830151866103b4565b91508260005260206000206000925b601f198316841061072d576001935082601f19811610610714575b5050811b0190556103c8565b85015160001960f88460031b161c191690558680610708565b858101518255602093840193600190920191016106ed565b826000526020600020601f830160051c810160208410610782575b601f830160051c8201811061077657505061039d565b60008155600101610760565b5080610760565b346100b35760203660031901126100b3576004356001600160a01b03818116918290036100b3576107c06000549182163314611bfb565b81156107fd576001600160a01b031916811760009081557f7ce7ec0b50378fb6c0186ffb5f48325f6593fcb4ca4386f21861af3129188f5c9080a2005b60405162461bcd60e51b815260206004820152600f60248201526e496e76616c6964206164647265737360881b6044820152606490fd5b346100b35760003660031901126100b3576020600254604051908152f35b346100b35760203660031901126100b3576004356000526001602052604060002080546001820161088290611b55565b9161088f60028201611b55565b61089b60038301611b55565b916108a860048201611b55565b6108b460058301611b55565b6108c060068401611b55565b6108cc60078501611b55565b906108d960088601611b55565b926108e660098701611b55565b94600a87015498600b88015497600c0154986040519c8d9c8d528c6101c06020819201528d01610915916119de565b8c810360408e0152610926916119de565b8b810360608d0152610937916119de565b8a810360808c0152610948916119de565b89810360a08b0152610959916119de565b88810360c08a015261096a916119de565b87810360e089015261097b916119de565b86810361010088015261098d916119de565b85810361012087015261099f916119de565b9260ff8116151561014086015260081c60ff1615156101608501526101808401526101a08301520390f35b346100b3576020806003193601126100b3576004356109e7611ca7565b508060005260038252610a0160ff60406000205416611c64565b60005260018152604060002090600c60405192610a1d846118e3565b80548452610a2d60018201611b55565b83850152610a3d60028201611b55565b6040850152610a4e60038201611b55565b6060850152610a5f60048201611b55565b6080850152610a7060058201611b55565b60a0850152610a8160068201611b55565b60c0850152610a9260078201611b55565b60e0850152610aa360088201611b55565b610100850152610ab560098201611b55565b61012085015260ff600a820154818116151561014087015260081c161515610160850152600b81015461018085015201546101a0830152610b00604051928284938452830190611a1e565b0390f35b346100b35760203660031901126100b3576004356002548110156100b357610b2d602091611991565b90546040519160031b1c8152f35b346100b35760203660031901126100b3576004356000526003602052602060ff604060002054166040519015158152f35b346100b3576101203660031901126100b3576024356001600160401b0381116100b357610b9d90369060040161193b565b6044356001600160401b0381116100b357610bbc90369060040161193b565b906064356001600160401b0381116100b357610bdc90369060040161193b565b906084356001600160401b0381116100b357610bfc90369060040161193b565b9260a4356001600160401b0381116100b357610c1c90369060040161193b565b60c4356001600160401b0381116100b357610c3b90369060040161193b565b9060e4359283151584036100b357610c5e60018060a01b03600054163314611bfb565b600435600052600360205260ff604060002054166118a75760405194610c83866118e3565b60043586526020860152604085015284606085015285608085015260a084015260c0830152610cb0611c47565b60e0830152610cbd611c47565b610100830152604051610ccf816118ff565b600981526814d8da19591d5b195960ba1b60208201526101208301526000610140830152151561016082015261010435610180820152426101a082015260043560005260016020526040600020908051825560208101518051906001600160401b038211610607578190610d466001860154611b1b565b601f8111611854575b50602090601f83116001146117e2576000926117d7575b50508160011b916000199060031b1c19161760018301555b60408101518051906001600160401b038211610607578190610da36002860154611b1b565b601f8111611784575b50602090601f831160011461171257600092611707575b50508160011b916000199060031b1c19161760028301555b60608101518051906001600160401b038211610607578190610e006003860154611b1b565b601f81116116b4575b50602090601f831160011461164257600092611637575b50508160011b916000199060031b1c19161760038301555b60808101518051906001600160401b038211610607578190610e5d6004860154611b1b565b601f81116115e4575b50602090601f831160011461157257600092611567575b50508160011b916000199060031b1c19161760048301555b60a08101518051906001600160401b038211610607578190610eba6005860154611b1b565b601f8111611514575b50602090601f83116001146114a257600092611497575b50508160011b916000199060031b1c19161760058301555b60c08101518051906001600160401b038211610607578190610f176006860154611b1b565b601f8111611444575b50602090601f83116001146113d2576000926113c7575b50508160011b916000199060031b1c19161760068301555b60e08101518051906001600160401b038211610607578190610f746007860154611b1b565b601f8111611374575b50602090601f8311600114611302576000926112f7575b50508160011b916000199060031b1c19161760078301555b6101008101518051906001600160401b038211610607578190610fd26008860154611b1b565b601f81116112a4575b50602090601f831160011461123257600092611227575b50508160011b916000199060031b1c19161760088301555b6101208101518051906001600160401b0382116106075761102e6009850154611b1b565b601f81116111e0575b50602090601f831160011461116a579180600c94926101a09460009261115f575b50508160011b916000199060031b1c19161760098501555b600a84016110916101408301511515829060ff801983541691151516179055565b610160820151815461ff00191690151560081b61ff0016179055610180810151600b85015501519101556004356000908152600360205260409020805460ff1916600117905560025468010000000000000000811015610607577fca61a16eebb141648c4394b5e99bc8154c1f480d531cefca1aaec6068fb38ad19161112082600161114e9401600255611991565b81549060031b90600435821b91600019901b191617905561051d6040519283926040845260408401906119de565b8281036020840152600435956119de565b015190508880611058565b906009850160005260206000209160005b601f19851681106111c8575092600c94926001926101a09583601f198116106111af575b505050811b016009850155611070565b015160001960f88460031b161c1916905588808061119f565b9192602060018192868501518155019401920161117b565b600985016000526020600020601f840160051c810160208510611220575b601f830160051c82018110611214575050611037565b600081556001016111fe565b50806111fe565b015190508680610ff2565b9250600885016000526020600020906000935b601f1984168510611289576001945083601f19811610611270575b505050811b01600883015561100a565b015160001960f88460031b161c19169055868080611260565b81810151835560209485019460019093019290910190611245565b909150600885016000526020600020601f840160051c8101602085106112f0575b90849392915b601f830160051c820181106112e1575050610fdb565b600081558594506001016112cb565b50806112c5565b015190508680610f94565b9250600785016000526020600020906000935b601f1984168510611359576001945083601f19811610611340575b505050811b016007830155610fac565b015160001960f88460031b161c19169055868080611330565b81810151835560209485019460019093019290910190611315565b909150600785016000526020600020601f840160051c8101602085106113c0575b90849392915b601f830160051c820181106113b1575050610f7d565b6000815585945060010161139b565b5080611395565b015190508680610f37565b9250600685016000526020600020906000935b601f1984168510611429576001945083601f19811610611410575b505050811b016006830155610f4f565b015160001960f88460031b161c19169055868080611400565b818101518355602094850194600190930192909101906113e5565b909150600685016000526020600020601f840160051c810160208510611490575b90849392915b601f830160051c82018110611481575050610f20565b6000815585945060010161146b565b5080611465565b015190508680610eda565b9250600585016000526020600020906000935b601f19841685106114f9576001945083601f198116106114e0575b505050811b016005830155610ef2565b015160001960f88460031b161c191690558680806114d0565b818101518355602094850194600190930192909101906114b5565b909150600585016000526020600020601f840160051c810160208510611560575b90849392915b601f830160051c82018110611551575050610ec3565b6000815585945060010161153b565b5080611535565b015190508680610e7d565b9250600485016000526020600020906000935b601f19841685106115c9576001945083601f198116106115b0575b505050811b016004830155610e95565b015160001960f88460031b161c191690558680806115a0565b81810151835560209485019460019093019290910190611585565b909150600485016000526020600020601f840160051c810160208510611630575b90849392915b601f830160051c82018110611621575050610e66565b6000815585945060010161160b565b5080611605565b015190508680610e20565b9250600385016000526020600020906000935b601f1984168510611699576001945083601f19811610611680575b505050811b016003830155610e38565b015160001960f88460031b161c19169055868080611670565b81810151835560209485019460019093019290910190611655565b909150600385016000526020600020601f840160051c810160208510611700575b90849392915b601f830160051c820181106116f1575050610e09565b600081558594506001016116db565b50806116d5565b015190508680610dc3565b9250600285016000526020600020906000935b601f1984168510611769576001945083601f19811610611750575b505050811b016002830155610ddb565b015160001960f88460031b161c19169055868080611740565b81810151835560209485019460019093019290910190611725565b909150600285016000526020600020601f840160051c8101602085106117d0575b90849392915b601f830160051c820181106117c1575050610dac565b600081558594506001016117ab565b50806117a5565b015190508680610d66565b9250600185016000526020600020906000935b601f1984168510611839576001945083601f19811610611820575b505050811b016001830155610d7e565b015160001960f88460031b161c19169055868080611810565b818101518355602094850194600190930192909101906117f5565b909150600185016000526020600020601f840160051c8101602085106118a0575b90849392915b601f830160051c82018110611891575050610d4f565b6000815585945060010161187b565b5080611875565b60405162461bcd60e51b81526020600482015260146024820152734d6174636820616c72656164792065786973747360601b6044820152606490fd5b6101c081019081106001600160401b0382111761060757604052565b604081019081106001600160401b0382111761060757604052565b90601f801991011681019081106001600160401b0382111761060757604052565b81601f820112156100b3578035906001600160401b038211610607576040519261196f601f8401601f19166020018561191a565b828452602083830101116100b357816000926020809301838601378301015290565b6002548110156119c85760026000527f405787fa12a823e0f2b7631cc41b3ba8828b3321ca811111fa75cd3aa3bb5ace0190600090565b634e487b7160e01b600052603260045260246000fd5b919082519283825260005b848110611a0a575050826000602080949584010152601f8019910116010190565b6020818301810151848301820152016119e9565b9081518152611ae8611ad4611ac0611aae611a9c611a8a611a78611a66611a5460208b01516101c08060208d01528b01906119de565b60408b01518a820360408c01526119de565b60608a015189820360608b01526119de565b608089015188820360808a01526119de565b60a088015187820360a08901526119de565b60c087015186820360c08801526119de565b60e086015185820360e08701526119de565b6101008086015190858303908601526119de565b6101208085015190848303908501526119de565b91610140808201511515908301526101608082015115159083015261018080820151908301526101a08091015191015290565b90600182811c92168015611b4b575b6020831014611b3557565b634e487b7160e01b600052602260045260246000fd5b91607f1691611b2a565b9060405191826000825492611b6984611b1b565b908184526001948581169081600014611bd85750600114611b95575b5050611b939250038361191a565b565b9093915060005260209081600020936000915b818310611bc0575050611b9393508201013880611b85565b85548884018501529485019487945091830191611ba8565b915050611b9394506020925060ff191682840152151560051b8201013880611b85565b15611c0257565b60405162461bcd60e51b815260206004820152601860248201527f4f6e6c792061646d696e2063616e2063616c6c207468697300000000000000006044820152606490fd5b60405190611c54826118ff565b60018252600360fc1b6020830152565b15611c6b57565b60405162461bcd60e51b815260206004820152601460248201527313585d18da08191bd95cc81b9bdd08195e1a5cdd60621b6044820152606490fd5b60405190611cb4826118e3565b60006101a083828152606080602083015280604083015280808301528060808301528060a08301528060c08301528060e0830152806101008301526101208201528261014082015282610160820152826101808201520152565b6001600160401b0381116106075760051b60200190565b80518210156119c85760209160051b01019056fea26469706673582212207a35deb06022e5a261118b8c129a616acb9eaea51960b25669072ff6f741e64b64736f6c63430008140033",
  "linkReferences": {},
  "deployedLinkReferences": {}
}